:100000000C9434000C9446000C9446000C9446006A
:100010000C9446000C9446000C9446000C94460048
:100020000C9446000C9446000C9446000C94AC00D2
:100030000C9446000C9446000C9446000C94460028
:100040000C9446000C9446000C9446000C94460018
:100050000C9446000C948D000C9446000C944600C1
:100060000C9446000C94460011241FBECFEFD8E03C
:10007000DEBFCDBF21E0A0E0B1E001C01D92A23003
:10008000B207E1F70E9411010C9440010C940000AA
:100090008AB180678AB98BB180618BB98BB18F7D52
:1000A0008BB983E884BD82E085BD08951092C500B8
:1000B00087E68093C40088E08093C10086E0809347
:1000C000C20008959091C00095FFFCCF8093C600B8
:1000D000089580E480937C00EAE7F0E08FEA808373
:1000E00010927B0081E080937E0080818064808319
:1000F0000895E1E8F0E080818860808383ED90E3FB
:100100009093890080938800808183608083EFE6EC
:10011000F0E080818260808308951F920F920FB675
:100120000F9211248F939F93809178009091790082
:100130009093010180930001809100019091010151
:10014000969587959695879587BD9F918F910F90EE
:100150000FBE0F901F9018951F920F920FB60F921F
:1001600011242F933F934F935F936F937F938F93BC
:100170009F93AF93BF93CF93DF93EF93FF93409100
:1001800000015091010184EF91E0489F9001499F47
:10019000300D589F300D1124C9016FEF73E00E949C
:1001A0001D01EB01C90166EF77E20E941D0180E3AA
:1001B000860F0E9462008EE20E9462009E01ADECFA
:1001C000BCEC0E94310196958795969587959695FA
:1001D00087959C01220F331F880F991F880F991F45
:1001E000880F991F820F931F9E01281B390BC9018D
:1001F000805D0E9462008AE00E946200FF91EF91A0
:10020000DF91CF91BF91AF919F918F917F916F912E
:100210005F914F913F912F910F900FBE0F901F90C4
:1002200018950E9456000E9469000E9479000E9461
:10023000480080E887BD7894FFCFAA1BBB1B51E123
:1002400007C0AA1FBB1FA617B70710F0A61BB70B46
:10025000881F991F5A95A9F780959095BC01CD01EB
:100260000895A29FB001B39FC001A39F700D811D8F
:100270001124911DB29F700D811D1124911D0895AF
:04028000F894FFCF20
:00000001FF
