:100000000C9434000C9459000C943E000C943E0067
:100010000C943E000C943E000C943E000C943E0068
:100020000C943E000C943E000C943E000C943E0058
:100030000C943E000C943E000C943E000C943E0048
:100040000C943E000C943E000C943E000C943E0038
:100050000C943E000C943E000C943E000C943E0028
:100060000C943E000C943E0011241FBECFEFD8E04C
:10007000DEBFCDBF0E9456000C9478000C940000A7
:1000800084B1806284B98AB18B7F8AB98BB1846074
:100090008BB9E9E6F0E080818260808380818E7F89
:1000A00080838DB381608DBB789408950E94400059
:1000B000FFCF1F920F920FB60F9211242F938F93A1
:1000C0009F9385B1806285B92FEF8DE399E421502C
:1000D00080409040E1F700C0000085B18F7D85B978
:1000E0009F918F912F910F900FBE0F901F90189599
:0400F000F894FFCFB2
:00000001FF
