S00B00004441372E737265635D
S11300000C9400020C941D020C941D020C941D020D
S11300100C941D020C941D020C941D020C941D02E0
S11300200C941D020C941D020C941D020C941D02D0
S11300300C941D020C941D020C941D020C941D02C0
S11300400C941D020C941D020C941D020C941D02B0
S11300500C941D020C941D020C941D020C941D02A0
S11300600C941D020C941D02084AD73B3BCE016E32
S113007084BCBFFDC12F3D6C74319ABD56833DDAFB
S11300803D00C77F11BED9E4BB4C3E916BAAAABE0A
S1130090000000803F0000407A10F35A00A0724E26
S11300A018090010A5D4E80000E87648170000E419
S11300B00B54020000CA9A3B000000E1F505000061
S11300C080969800000040420F000000A0860100C6
S11300D00000102700000000E80300000000640096
S11300E0000000000A000000000001000000000001
S11300F02C76D888DC674F0823DFC1DFAE59E1B125
S1130100B796E5E3E453C63AE651997696E8E6C233
S11301108426EB898C9B62ED407C6FFCEFBC9C9F3A
S113012040F2BAA56FA5F490055A2AF75C936B6C5C
S1130130F9676DC11BFCE0E40D47FEF520E6B50050
S1130140D0ED902E0300943577050080841E0800BE
S113015000204E0A000000C80C333333330F986E6E
S113016012831141EF8D2114893BE65516CFFEE62B
S1130170DB18D1844B381BF77C1D901DA4BBE424F1
S1130180203284725E228100C9F124ECA1E53D276E
S11301900000000000000000002F00000000070025
S11301A0070000147F147F1400242A7F2A1200629F
S11301B0640813230036495522500000050300004B
S11301C000001C224100000041221C000014083ED3
S11301D008140008083E0808000000A06000000899
S11301E008080808000060600000002010080402ED
S11301F0003E5149453E0000427F400000426151AB
S11302004946002141454B31001814127F10002744
S113021045454539003C4A49493000017109050307
S113022000364949493600064949291E0000363638
S1130230000000005636000000081422410000149B
S11302401414141400004122140800020151090678
S113025000324959513E007C1211127C007F4949F9
S11302604936003E41414122007F4141221C007F2A
S113027049494941007F09090901003E4149497A38
S1130280007F0808087F0000417F410000204041B2
S11302903F01007F08142241007F40404040007F1E
S11302A0020C027F007F0408107F003E4141413E62
S11302B0007F09090906003E4151215E007F0919AA
S11302C029460046494949310001017F0101003FA7
S11302D04040403F001F2040201F003F4038403F27
S11302E0006314081463000708700807006151498B
S11302F0454300007F41410000552A552A5500001E
S113030041417F000004020102040040404040409B
S1130310000001020400002054545478007F484433
S1130320443800384444442000384444487F00386A
S11303305454541800087E0901020018A4A4A47C93
S1130340007F080404780000447D4000004080845D
S11303507D00007F102844000000417F4000007CA5
S113036004180478007C08040478003844444438B1
S113037000FC242424180018242418FC007C0804FD
S1130380040800485454542000043F444020003CD6
S11303904040207C001C2040201C003C4030403C5D
S11303A0004428102844001CA0A0A07C00446454ED
S11303B04C44000008774100000000630000000086
S11303C041770800000804080804003A4040207AF5
S11303D0003D4040403D002154545479007D1211A9
S11303E0127D003944444439003D4242423D0002FA
S11303F005020000007E01495573007C1010081CA2
S113040011241FBECFEFD8E0DEBFCDBF11E0A0E0C6
S1130410B1E0E2E1FDE102C005900D92A636B1071C
S1130420D9F725E0A6E6B1E001C01D92AE37B207C8
S1130430E1F70E94F1040C94870E0C9400001092D2
S1130440B90088E48093B80084E08093BC0087B14D
S11304508F7C87B988B1806388B9089594EA9093B2
S1130460BC009091BC009923E4F78093BB0084E81E
S11304708093BC008091BC008823E4F78091B9008C
S1130480887F08958093BB0084E88093BC008091AA
S1130490BC008823E4F78091B900887F089584E93B
S11304A08093BC008091BC0084FDFCCF089584EC53
S11304B08093BC008091BC008823E4F78091BB004A
S11304C0089584E88093BC008091BC008823E4F7FD
S11304D08091BB000895CF93C82F88E70E942E0215
S11304E080E00E9442028C2F0E9442020E944F022E
S11304F0CF910895CF93C82F8AB184608AB98BB104
S11305008B7F8BB98FE39CE90197F1F700C0000062
S11305108BB184608BB98FE39CE90197F1F700C03C
S113052000008EEA0E946B0285ED0E946B0280E857
S11305300E946B0288EA0E946B028FE30E946B02A6
S113054083ED0E946B0280E00E946B0280E20E94B5
S11305506B0282E00E946B028DE80E946B0284E1D0
S11305600E946B0281EA0E946B0288EC0E946B027B
S11305708AED0E946B0282E10E946B0281E80E9474
S11305806B028FEF0E946B0289ED0E946B0281EF78
S11305900E946B028BED0E946B0280E40E946B024E
S11305A084EA0E946B0286EA0E946B028C2F0E94EE
S11305B06B02CF91089580E094E0E6E6F1E0DF017C
S11305C09C011D9221503040E1F70895CF93DF93B1
S11305D090EE940F903608F04FE3405290E0DC0127
S11305E0AA0FBB1FA80FB91FAA0FBB1F80E8689FE3
S11305F0A00DB11D112490E018C0292F30E0B901DD
S11306006A0F7B1FE42FF0E0EF01CC0FDD1FEC0F2E
S1130610FD1FEE0FFF1FE20FF31FE057FE4FE491A3
S1130620EB01CA59DE4FE8839F5F963030F3DF91C8
S1130630CF9108950F931F93CF93DF93062FEA0171
S113064007C0219611E0180F602F0E94E602812F47
S113065048814111F6CFDF91CF911F910F910895F9
S1130660CF93DF93D0E024C080EB8D0F0E946B0208
S113067080E00E946B0280E10E946B0288E70E9486
S11306802E0280E40E944202C0E00DC0EC2FF0E094
S113069080E8D89FE00DF11D1124EA59FE4F8081B6
S11306A00E944202CF5FCC238CF70E944F02DF5F8F
S11306B0D830D0F2DF91CF91089587E690E09093FF
S11306C0C5008093C40088E08093C10086E08093D5
S11306D0C20008959091C00095FFFCCF8093C6009E
S11306E00895CF93DF93EC0103C021960E946A031F
S11306F088818111FACFDF91CF9108951F93CF9311
S1130700DF9380ED0E942E0282E10E94420281ED7D
S11307100E942E02C0E0D0E011C00E945702182FA0
S11307200E94570290E0982F8827812BFE01EE0F3C
S1130730FF1FE858FA4F918380832196C330D10577
S113074064F3C0E0D0E011C00E945702182F0E9449
S1130750570290E0982F8827812BFE01EE0FFF1F90
S1130760EE58FA4F918380832196C230D10564F309
S11307700E945702C82F0E94610290E0982F882798
S11307808C2B90937705809376050E944F02DF911E
S1130790CF911F9108954F925F926F927F928F92A3
S11307A09F92AF92BF92CF92DF92EF92FF92CF933C
S11307B0DF93C8E7D5E06C817D81072E000C880BA0
S11307C0990B0E9411086B017C016A817B81072EC1
S11307D0000C880B990B0E941108A70196010E9436
S11307E03E0720E030E044E353E40E94CC082BEDC4
S11307F03FE049E450E40E949D074B015C0168819D
S11308007981072E000C880B990B0E941108A7010F
S113081096010E943E0720E030E044E353E40E9446
S1130820CC082BED3FE049E450E40E949D072B01E6
S11308303C0128E431EE4AE75FE360916A05709178
S11308406B0580916C0590916D050E94CC086B013D
S11308507C012AE037ED43EA5CE3C501B4010E9460
S1130860CC089B01AC01C701B6010E94BF0660938E
S11308706A0570936B0580936C0590936D0528E46D
S113088031EE4AE75FE360916E0570916F058091E8
S11308907005909171050E94CC086B017C012AE0DF
S11308A037ED43EA5CE3C301B2010E94CC089B012B
S11308B0AC01C701B6010E94BF0660936E05709338
S11308C06F05809370059093710560917605709122
S11308D07705072E000C880B990B0E94110823E35F
S11308E033E343E851E40E949D072AE037ED43E2F5
S11308F05CE30E94CC089B01AC0160916605709199
S1130900670580916805909169050E94BF06609310
S11309106605709367058093680590936905DF9178
S1130920CF91FF90EF90DF90CF90BF90AF909F90CA
S11309308F907F906F905F904F90089580ED0E940C
S11309402E028EE70E94420286EB0E9442020E941F
S11309504F022FEF81EE94E0215080409040E1F768
S113096000C0000080ED0E942E0280E40E9442023A
S113097088E20E9442020E944F0280ED0E942E02F1
S113098082E40E94420288E20E9442020E944F02D4
S113099080ED0E942E028EE70E94420285E10E94B1
S11309A042020E944F022FEF80E792E021508040E4
S11309B09040E1F700C0000080ED0E942E028EE717
S11309C00E94420281E10E9442020E944F022FEFE4
S11309D080E792E0215080409040E1F700C00000A1
S11309E00895CF93DF93CDB7DEB7C851D1400FB68A
S11309F0F894DEBF0FBECDBF0E945D030E941F02AC
S1130A000E949E048FEA0E947A020E94DB020E94E6
S1130A10300378940E947E030E94CB0308E715E01C
S1130A20F80160817181072E000C880B990B0E94DC
S1130A30110820E030E040E858E30E94CC082B0184
S1130A403C01F80162817381072E000C880B990B1D
S1130A500E94110820E030E040E858E30E94CC08EE
S1130A604B015C01F80164817581072E000C880B31
S1130A70990B0E94110820E030E040E858E30E94FE
S1130A80CC086B017C0102E715E0F80160817181FB
S1130A90072E000C880B990B0E94110823E333E303
S1130AA043E851E40E949D07C35FDE4F6883798366
S1130AB08A839B83CD50D140F80162817381072ED4
S1130AC0000C880B990B0E94110823E333E343E8DD
S1130AD051E40E949D07CF5EDE4F688379838A8349
S1130AE09B83C151D140F80164817581072E000CAC
S1130AF0880B990B0E94110823E333E343E851E484
S1130B000E949D07CB5EDE4F688379838A839B8333
S1130B10C551D140CE018F539F4FC75FDE4F99839C
S1130B208883C950D1408C0122E044E0C301B20162
S1130B300E943D09FE01E753FF4FC55FDE4FF98375
S1130B40E883CB50D1408F0122E044E0C501B401D9
S1130B500E943D091E01F1ED2F0E311C810122E09E
S1130B6044E0C701B6010E943D092E0129ED420E61
S1130B70511C820121E044E0C35FDE4F688179812A
S1130B808A819B81CD50D1400E943D097E0181EE36
S1130B90E80EF11C870121E044E0CF5EDE4F68815E
S1130BA079818A819B81C151D1400E943D096E01A6
S1130BB099EEC90ED11C860121E044E0CB5EDE4FE4
S1130BC0688179818A819B81C551D1400E943D0908
S1130BD03E01E1EF6E0E711C60916E0570916F0520
S1130BE08091700590917105830121E044E00E9499
S1130BF03D094E01F9EF8F0E911C60916A057091C9
S1130C006B0580916C0590916D05840121E044E0B1
S1130C100E943D095E0121E0A20EB21E60916605AC
S1130C20709167058091680590916905850121E0BF
S1130C3044E00E943D09DF92CF92FF92EF925F92CF
S1130C404F923F922F92C45FDE4F8881CC50D140A7
S1130C508F93C55FDE4F9881CB50D1409F93C65F81
S1130C60DE4FE881CA50D140EF93C75FDE4FF88171
S1130C70C950D140FF9380E091E09F938F931F92DE
S1130C8080E88F931A951F930F930E945D09BF927A
S1130C90AF929F928F927F926F9288E391E09F939D
S1130CA08F931F9280E48F937E0121E8E20EF11C62
S1130CB0FF92EF920E945D09C8010E947103C7016F
S1130CC00E94710384E591E00E9471030E94DB029B
S1130CD047E551E060E070E080E090E00E941A0394
S1130CE0A30160E070E082E090E00E941A034AE50C
S1130CF051E060E070E086E090E00E941A034FE566
S1130D0051E061E070E080E090E00E941A03A401E9
S1130D1061E070E082E090E00E941A034AE551E04D
S1130D2061E070E086E090E00E941A0342E651E040
S1130D3062E070E080E090E00E941A03A50162E0A6
S1130D4070E082E090E00E941A034AE551E062E01C
S1130D5070E086E090E00E941A030E9430038FEF57
S1130D6091EEE4E081509040E040E1F700C00000E3
S1130D700FB6F894DEBF0FBECDBF4CCE5058BB2784
S1130D80AA270E94D6060C948A080E947C0838F090
S1130D900E94830820F039F49F3F19F426F40C9440
S1130DA052080EF4E095E7FB0C944C08E92F0E94DE
S1130DB09B0858F3BA17620773078407950720F056
S1130DC079F4A6F50C94BD080EF4E0950B2EBA2F19
S1130DD0A02D0B01B90190010C01CA01A00111243D
S1130DE0FF27591B99F0593F50F4503E68F11A16E9
S1130DF0F040A22F232F342F4427585FF3CF46957A
S1130E0037952795A795F0405395C9F77EF41F169B
S1130E10BA0B620B730B840BBAF09150A1F0FF0F65
S1130E20BB1F661F771F881FC2F70EC0BA0F621F51
S1130E30731F841F48F4879577956795B795F79541
S1130E409E3F08F0B0CF9395880F08F09927EE0FD6
S1130E509795879508950E947C0860F080E891E05A
S1130E6009F49EEF0E94830828F040E851E071F4F1
S1130E705EEF0CC00C9452080C94BD08E92FE07886
S1130E800E949B0840F3092E052AB1F32617370761
S1130E904807590738F00E2E07F8E02569F0E025D9
S1130EA0E0640AC0EF6307F8009407FADB01B901B4
S1130EB09D01DC01CA01AD01EF930E94B4070E94B9
S1130EC08A080E946E075F91552339F02BED3FE0AD
S1130ED049E450FD49EC0C94BF060895DF93DD27E7
S1130EE0B92FBF7740E85FE31616170648075B077C
S1130EF018F4D92F0E94C4089F938F937F936F9304
S1130F000E943909E8E6F0E00E9455080E948A0828
S1130F102F913F914F915F910E94DF08DD2351F0A3
S1130F209058A2EA2AED3FE049EC5FE3D0785D27D0
S1130F300E94D606DF910C948A080E94B1070C9493
S1130F408A080E94830858F00E947C0840F029F423
S1130F505F3F29F00C944C0851110C94BE080C947A
S1130F6052080E949B0868F39923B1F3552391F327
S1130F70951B550BBB27AA2762177307840738F004
S1130F809F5F5F4F220F331F441FAA1FA9F335D061
S1130F900E2E3AF0E0E832D091505040E695001C15
S1130FA0CAF72BD0FE2F29D0660F771F881FBB1FCF
S1130FB0261737074807AB07B0E809F0BB0B802DAD
S1130FC0BF01FF2793585F4F3AF09E3F510578F0D9
S1130FD00C944C080C94BE085F3FE4F3983ED4F3A1
S1130FE0869577956795B795F7959F5FC9F7880FAD
S1130FF0911D9695879597F90895E1E0660F771FFF
S1131000881FBB1F621773078407BA0720F0621B8F
S1131010730B840BBA0BEE1F88F7E0950895E894E0
S113102009C097FB3EF490958095709561957F4F2C
S11310308F4F9F4F9923A9F0F92F96E9BB279395DA
S1131040F695879577956795B795F111F8CFFAF4EA
S1131050BB0F11F460FF1BC06F5F7F4F8F4F9F4F1B
S113106016C0882311F096E911C0772321F09EE879
S1131070872F762F05C0662371F096E8862F70E0DF
S113108060E02AF09A95660F771F881FDAF7880FB9
S11310909695879597F9089597F99F6780E870E08A
S11310A060E008959FEF80EC0895DF93CF931F9342
S11310B00F93FF92EF92DF927B018C01689406C03C
S11310C0DA2EEF010E94DF08FE01E894A591259134
S11310D0359145915591A6F3EF010E94D606FE0184
S11310E09701A801DA9469F7DF90EF90FF900F91D0
S11310F01F91CF91DF91089500240A9416161706C4
S113110018060906089500240A94121613061406F4
S113111005060895092E0394000C11F4882352F057
S1131120BB0F40F4BF2B11F460FF04C06F5F7F4F0F
S11311308F4F9F4F089557FD9058440F551F59F0F6
S11311405F3F71F04795880F97FB991F61F09F3FB0
S113115079F087950895121613061406551FF2CFD9
S11311604695F1DF08C0161617061806991FF1CF29
S113117086957105610508940895E894BB27662750
S11311807727CB0197F908959B01AC0160E070E0EB
S113119080E89FE30C949D070E94DF080C948A0862
S11311A00E947C0838F00E94830820F0952311F0F7
S11311B00C944C080C94520811240C94BE080E9400
S11311C09B0870F3959FC1F3950F50E0551F629FE4
S11311D0F001729FBB27F00DB11D639FAA27F00D8C
S11311E0B11DAA1F649F6627B00DA11D661F829FB3
S11311F02227B00DA11D621F739FB00DA11D621F98
S1131200839FA00D611D221F749F3327A00D611DB4
S1131210231F849F600D211D822F762F6A2F112496
S11312209F5750409AF0F1F088234AF0EE0FFF1FC9
S1131230BB1F661F771F881F91505040A9F79E3F20
S1131240510580F00C944C080C94BE085F3FE4F305
S1131250983ED4F3869577956795B795F795E79576
S11312609F5FC1F7FE2B880F911D9695879597F97F
S113127008959B01AC010C94CC08EF920F931F933B
S1131280CF93DF93E80147FD02C034E001C034E1AD
S1131290042E000C550B57FF03C05195419551097D
S11312A0E32E022F242FAE010E946E0BCE01DF919C
S11312B0CF911F910F91EF900895AEE0B0E0E3E677
S11312C0F9E00C945E0E0D891E898F89988D26E0B5
S11312D02C831A83098397FF02C080E090E801976A
S11312E09E838D83AE01455E5F4F698D7A8DCE01FD
S11312F001960E948D094D815E8157FD0AC02F81A0
S11313003885421753070CF49A01F801E20FF31FD2
S113131010822E96E4E00C947A0EABE0B0E0E3E9A0
S1131320F9E00C94500E6C017B018A01FC011782D8
S11313301682838181FFCCC1CE0101963C01F60166
S11313409381F70193FD859193FF81917F01882318
S113135009F4BAC1853239F493FD859193FF8191E3
S11313607F01853229F4B60190E00E94B60DE7CFE3
S1131370912C212C312CFFE1F315D8F08B3279F02C
S113138038F4803279F08332A1F4232D20611DC01A
S11313908D3261F0803369F4232D216016C0832DD2
S11313A08260382EE32DE4603E2E2AC0F32DF860CF
S11313B01DC037FC2DC020ED280F2A3040F08E329E
S11313C0B9F436FC81C1232D2064322E19C036FEB7
S11313D006C08AE0989E200D1124922E11C0EAE0E6
S11313E02E9E200D1124222EF32DF0623F2E08C0D4
S11313F08C3621F4832D8068382E02C0883641F45F
S1131400F70193FD859193FF81917F018111B3CF02
S1131410982F9F7D9554933028F40C5F1F4F9FE3C2
S113142099830DC0833631F0833771F0833509F029
S113143059C021C0F801808189830E5F1F4F882421
S11314408394912C530113C02801F2E04F0E511CD8
S1131450F801A080B18036FE03C0692D70E002C09F
S11314606FEF7FEFC5010E94AB0D4C018201F32D9C
S1131470FF773F2E16C0280122E0420E511CF801CE
S1131480A080B18036FE03C0692D70E002C06FEF0A
S11314907FEFC5010E94A00D4C01F32DF0683F2E93
S11314A0820133FC1BC0822D90E088169906B0F4AB
S11314B0B60180E290E00E94B60D2A94F4CFF501C3
S11314C037FC859137FE81915F01B60190E00E945F
S11314D0B60D21102A9421E0821A910881149104F6
S11314E071F7E8C0843611F0893641F5F80137FE0A
S11314F007C060817181828193810C5F1F4F08C096
S113150060817181072E000C880B990B0E5F1F4FB1
S1131510F32DFF763F2E97FF09C090958095709527
S113152061957F4F8F4F9F4FF0683F2E2AE030E048
S1131530A3010E94F20D882E861845C0853731F428
S1131540232D2F7EB22E2AE030E025C0932D997FE3
S1131550B92E8F36C1F018F4883579F0B5C08037CC
S113156019F0883721F0B0C0E92FE061BE2EB4FE37
S11315700DC0FB2DF460BF2E09C034FE0AC0292F14
S11315802660B22E06C028E030E005C020E130E03D
S113159002C020E132E0F801B7FE07C0608171812A
S11315A0828193810C5F1F4F06C06081718180E04E
S11315B090E00E5F1F4FA3010E94F20D882E861843
S11315C0FB2DFF773F2E36FE0DC0232D2E7FA22E3E
S11315D0891458F434FE0BC032FC09C0832D8E7E6E
S11315E0A82E05C0B82CA32C03C0B82C01C0B92C5C
S11315F0A4FE0FC0FE01E80DF11D8081803321F4AB
S11316009A2D997EA92E09C0A2FE06C0B394B39464
S113161004C08A2D867809F0B394A3FC11C0A0FEFF
S113162006C0B21488F4280C922C9B180EC0B21475
S113163060F4B60180E290E00E94B60DB394F7CF57
S1131640B21418F42B1802C0982C212CA4FE10C03C
S1131650B60180E390E00E94B60DA2FE17C0A1FC83
S113166003C088E790E002C088E590E0B6010CC0B2
S11316708A2D867859F0A1FE02C08BE201C080E277
S1131680A7FC8DE2B60190E00E94B60D891438F4EF
S1131690B60180E390E00E94B60D9A94F7CF8A9445
S11316A0F301E80DF11D8081B60190E00E94B60DB2
S11316B08110F5CF222009F442CEB60180E290E0F9
S11316C00E94B60D2A94F6CFF6018681978102C056
S11316D08FEF9FEF2B96E2E10C946C0EA9E0B0E043
S11316E0E4E7FBE00C94560E6A01122FB02E2BE3B4
S11316F0201720F0FF24F394F00E02C02CE3F22E06
S11317000F2D27E0AE014F5F5F4F0E94C80CBC0154
S11317104981842F8970813031F0E1FC06C0E0FEFC
S113172006C090E205C09DE203C09BE201C090E0C8
S11317305E2D507143FF3CC0911102C083E001C093
S113174084E0811718F4212F281B01C020E05111D7
S11317500BC0F601822F30E2882319F031938150B7
S1131760FBCFC20ED11C20E0992329F0D6019C9313
S1131770F60131966F01C6010396E2FE0AC03EE40B
S1131780D6013C9341E411964C93119712963C93E5
S113179006C03EE6F601308341E641833283FC0114
S11317A0322F40E2332309F442C041933150FACF3F
S11317B042FF44C0911102C083E001C084E081175C
S11317C018F4212F281B01C020E051110BC0F60191
S11317D0822F30E2882319F031938150FBCFC20E5F
S11317E0D11C20E0992329F0D6019C93F60131966F
S11317F06F01C6010396E2FE0BC039E4D6013C93A7
S11318003EE411963C93119736E412963C9307C03C
S113181039E6F60130833EE6318336E63283FC0155
S1131820322F40E2332319F041933150FBCFFC01B6
S1131830E20FF11D10828EEF9FEFA6C021E030E091
S1131840911102C020E030E0161617061CF4FB01CB
S1131850319602C0E1E0F0E02E0F3F1FBB2021F0E3
S1131860EB2DF0E0319602C0E0E0F0E02E0F3F1FD8
S1131870E12FF0E02E173F071CF4121B212F01C0AB
S113188020E08E2D887159F4F601822F30E28823EE
S113189019F031938150FBCFC20ED11C20E0992363
S11318A029F0D6019C93F60131966F0151110BC0BA
S11318B0F601822F90E3882319F091938150FBCF96
S11318C0C20ED11C20E00F2D060F9A81342F3071E7
S11318D044FF03C0913309F40150101624F4093075
S11318E018F008E001C001E0AB0177FF02C040E05E
S11318F050E0FB01E41BF50BA1E0B0E0AC0FBD1F11
S1131900EA0FFB1F8EE2A82E4B01801A91080B2DC3
S113191010E01195019511094F3FBFEF5B0721F4CA
S1131920D601AC9211966D01641775072CF08416DC
S1131930950614F4818101C080E341505109319628
S1131940D60111967D014017510724F0D6018C93DE
S11319506701E2CF6417750739F4963320F49533A1
S113196019F4311101C081E3F6018083F701822F5C
S113197090E2882319F091938150FBCFF701E20F95
S1131980F11D108280E090E02996ECE00C94720E38
S1131990283008F027E03327DA01990F311D87FD3D
S11319A0916000966105710539F432602E5F3D93B4
S11319B030E32A95E1F708959F3F30F080387105B0
S11319C0610509F03C5F3C5F3D93913008F080680D
S11319D0911DDF93CF931F930F93FF92EF92192FD3
S11319E0987F9695E92F96959695E90FFF27E051F4
S11319F0FF4F99273327EE24FF24A701E701059021
S1131A000894079428F4360FE71EF81E491F511D49
S1131A10660F771F881F991F0694A1F705900794F6
S1131A2028F4E70EF81E491F561FC11D770F881FA3
S1131A30991F661F0694A1F70590079428F4F80EE1
S1131A40491F561FC71FD11D880F991F661F771F77
S1131A500694A1F70590079420F4490F561FC71F59
S1131A60D81F990F661F771F881F0694A9F78491C2
S1131A701095177041F0D695C79557954795F794EB
S1131A80E7941A95C1F7E6E9F0E06894159015918A
S1131A9035916591959105907FE27395E118F10A6E
S1131AA0430B560BC90BD009C0F7E10CF11E431FC1
S1131AB0561FC91FD01D7EF4703311F48A95E6CFEA
S1131AC0E894015030F0080F0AF40027021708F4D4
S1131AD0202F2395022F7A3328F079E37D932A95DA
S1131AE0E9F710C07D932A9589F606949795679532
S1131AF0379517951794E118F10A430B560BC90B48
S1131B00D00998F023957E9173957A3308F070E3A9
S1131B107C932013B8F77E9170617D9330F08395A8
S1131B2071E37D9370E32A95E1F71124EF90FF9020
S1131B300F911F91CF91DF91992787FD909508957B
S1131B40FC010590615070400110D8F78095909584
S1131B508E0F9F1F0895FC01615070400190011089
S1131B60D8F7809590958E0F9F1F08950F931F931C
S1131B70CF93DF93FB01238121FD03C08FEF9FEF00
S1131B802CC022FF16C0468157812481358142171B
S1131B90530744F4A081B1819D012F5F3F4F3183EE
S1131BA020838C93268137812F5F3F4F3783268391
S1131BB014C08B01EC01FB010084F185E02D099533
S1131BC0892BE1F6D80116968D919C911797019671
S1131BD017969C938E931697CE01DF91CF911F9108
S1131BE00F910895FA01AA27283051F1203181F18B
S1131BF0E8946F936E7F6E5F7F4F8F4F9F4FAF4F11
S1131C00B1E03ED0B4E03CD0670F781F891F9A1F23
S1131C10A11D680F791F8A1F911DA11D6A0F711DD7
S1131C20811D911DA11D20D009F468943F912AE0E3
S1131C30269F11243019305D3193DEF6CF010895CB
S1131C40462F4770405D4193B3E00FD0C9F7F6CFFC
S1131C50462F4F70405D4A3318F0495D31FD4052C4
S1131C60419302D0A9F7EACFB4E0A695979587955A
S1131C7077956795BA95C9F7009761057105089539
S1131C809B01AC010A2E06945795479537952795E5
S1131C90BA95C9F7620F731F841F951FA01D08957D
S1131CA02F923F924F925F926F927F928F929F9268
S1131CB0AF92BF92CF92DF92EF92FF920F931F9356
S1131CC0CF93DF93CDB7DEB7CA1BDB0B0FB6F89407
S1131CD0DEBF0FBECDBF09942A88398848885F8447
S1131CE06E847D848C849B84AA84B984C884DF80B8
S1131CF0EE80FD800C811B81AA81B981CE0FD11D9C
S1131D000FB6F894DEBF0FBECDBFED010895F89471
S1051D10FFCFFF
S1131D124158203D2025736720204159203D20252C
S1131D2273672020415A203D202573670A475820B3
S1131D323D20257320204759203D2025732020472C
S1131D425A203D2025730A0052203D205B25735DF5
S1131D522050203D205B25735D2059203D205B25CA
S1131D62735D0A000A0A00523A0020646567005053
S1091D723A00593A00009A
S9030000FC
