:100000000C9434000C9446000C9446000C9446006A
:100010000C9446000C9446000C9446000C94460048
:100020000C9446000C94AB000C9446000C945300C6
:100030000C9446000C9446000C9446000C94460028
:100040000C9446000C9446000C9446000C94460018
:100050000C9446000C9446000C9446000C94460008
:100060000C9446000C94460011241FBECFEFD8E03C
:10007000DEBFCDBF21E0A0E0B1E001C01D92A830FD
:10008000B207E1F70E9400010C9423010C940000D8
:1000900081EE86BD85B3816085BB83E085BDA89B6D
:1000A000FECF15BC08951F920F920FB60F92112428
:1000B0002F933F938F939F9380910201909103011F
:1000C0000196909303018093020180910201909127
:1000D000030180349F41FCF0209100013091010127
:1000E00081E090E0232B11F080E090E090930101FB
:1000F000809300018091000190910101892B21F0F2
:1001000085B1806185B903C085B18F7E85B91092B4
:100110000301109202019F918F913F912F910F90B7
:100120000FBE0F901F90189584B1806184B9E1E8EB
:10013000F0E08081886080838DE390E09093890077
:1001400080938800808183608083EFE6F0E0808187
:100150008260808308951F920F920FB60F92112430
:100160002F933F938F939F9387EE8093B20080915C
:100170000601909107010196909307018093060173
:10018000809106019091070180319742FCF0209107
:1001900004013091050181E090E0232B11F080E013
:1001A00090E0909305018093040180910401909167
:1001B0000501892B21F085B1886085B903C085B11F
:1001C000877F85B910920701109206019F918F9148
:1001D0003F912F910F900FBE0F901F90189584B1F3
:1001E000886084B987EE8093B2001092B00084E0FA
:1001F0008093B100E0E7F0E0808181608083089522
:100200000E9494000E94EF0084B1806284B97894C7
:1002100085B1806285B9C0E0D0E003C00E9448008B
:100220002196C03E8EE2D807C8F385B18F7D85B98F
:10023000C0E0D0E003C00E9448002196C03E8EE29C
:0A024000D807C8F3E5CFF894FFCF0C
:00000001FF
