S01400004763634170705F4441325F312E737265633C
S11300000C9434000C943E000C943E000C943E007E
S11300100C943E000C943E000C943E000C943E0064
S11300200C943E000C943E000C943E000C943E0054
S11300300C943E000C943E000C943E000C943E0044
S11300400C943E000C943E000C943E000C943E0034
S11300500C943E000C943E000C943E000C943E0024
S11300600C943E000C943E0011241FBECFEFD8E048
S1130070DEBFCDBF0E9440000C944C000C940000E5
S11300802FEF82E597E0215080409040E1F700C0D7
S10F0090000080E090E00895F894FFCF99
S9030000FC
