:020000020000FC
:1000000048E04EBF4FEF4DBFB0E0A0E0D2E0C0E00F
:10001000F6E0E0E000E145910E947A00A3950A95A0
:10002000D1F700E10E947500A42EA3950E947500EF
:10003000B42EA3950E947500C42EA3950E9475004E
:10004000D42EA3950A9571F700E24EE957E369E7CC
:1000500079EB80E090E0A0E0B0E0840F951FA61F50
:10006000B71F29903990499059906990799089905B
:100070009990262D372D220F331F220F331F220F69
:10008000331F220F331F2A0D3B1DE62CF72CE6945D
:10009000E694E694E694E694E60CF71C26253725CC
:1000A0002E253F2529933993E22DF32DEE0FFF1FC7
:1000B000EE0FFF1FEE0FFF1FEE0FFF1FEC0DFD1DDC
:1000C000022C132C06940694069406940694020CB3
:1000D000131CE225F325E025F125E993F9930A9510
:1000E000003011F00C942D000895B2BDA1BDF89A16
:1000F00040B50895B2BDA1BD40BDFA9AF99A0895E0
:100400006A694C53544C4E6461527278726D6945FE
:10060000594B544667576E76616C6F42666C7272D6
:00000001FF
