:100000000C9434000C943E000C943E000C943E0082
:100010000C943E000C943E000C943E000C943E0068
:100020000C943E000C943E000C943E000C943E0058
:100030000C943E000C943E000C943E000C943E0048
:100040000C943E000C943E000C943E000C943E0038
:100050000C943E000C943E000C943E000C943E0028
:100060000C943E000C943E0011241FBECFEFD8E04C
:10007000DEBFCDBF0E9440000C945B000C940000DA
:1000800084B1806284B987B18D7F87B988B182607D
:1000900088B93199FECF85B1806285B92FEF8EE99D
:1000A00094E2215080409040E1F700C0000085B10B
:0A00B0008F7D85B9EECFF894FFCFE5
:00000001FF
