:100000000C9434000C9446000C9446000C9446006A
:100010000C9446000C9446000C9446000C94460048
:100020000C9446000C9446000C9446000C949500E9
:100030000C9446000C9446000C9446000C94460028
:100040000C9446000C9446000C9446000C94460018
:100050000C9446000C947F000C9446000C944600CF
:100060000C9446000C94460011241FBECFEFD8E03C
:10007000DEBFCDBF21E0A0E0B1E001C01D92A23003
:10008000B207E1F70E94FA000C9425010C940000DD
:100090001092C50087E68093C40088E08093C10079
:1000A00086E08093C20008959091C00095FFFCCF38
:1000B0008093C600089580E480937C00EAE7F0E036
:1000C0008FEA808310927B0081E080937E008081A4
:1000D000806480830895E1E8F0E080818860808317
:1000E00083ED90E390938900809388008081836002
:1000F0008083EFE6F0E080818260808308951F9224
:100100000F920FB60F9211248F939F9380917800D6
:100110009091790090930101809300019F918F91BC
:100120000F900FBE0F901F9018951F920F920FB651
:100130000F9211242F933F934F935F936F937F936D
:100140008F939F93AF93BF93CF93DF93EF93FF93DF
:10015000409100015091010184EF91E0489F90018E
:10016000499F300D589F300D1124C9016FEF73E086
:100170000E940201EB01C90166EF77E20E940201D1
:1001800080E3860F0E9454008EE20E9454009E017C
:10019000ADECBCEC0E9416019695879596958795D7
:1001A000969587959C01220F331F880F991F880F02
:1001B000991F880F991F820F931F9E01281B390BCF
:1001C000C901805D0E9454008AE00E945400FF91A2
:1001D000EF91DF91CF91BF91AF919F918F917F91DF
:1001E0006F915F914F913F912F910F900FBE0F90A4
:1001F0001F9018950E9448000E945B000E946B00AF
:100200007894FFCFAA1BBB1B51E107C0AA1FBB1FDD
:10021000A617B70710F0A61BB70B881F991F5A9592
:10022000A9F780959095BC01CD010895A29FB001DA
:10023000B39FC001A39F700D811D1124911DB29F1A
:0E024000700D811D1124911D0895F894FFCFBB
:00000001FF
