:100000000C9434000C9451000C9451000C94510049
:100010000C9451000C9451000C9451000C9451001C
:100020000C9451000C9469010C9451000C945100F3
:100030000C9451000C9451000C9451000C945100FC
:100040000C9451000C9451000C9451000C945100EC
:100050000C9451000C9451000C9451000C945100DC
:100060000C9451000C94510011241FBECFEFD8E026
:10007000DEBFCDBF11E0A0E0B1E0E0EDFAE002C0EC
:1000800005900D92A631B107D9F721E0A6E1B1E0C4
:1000900001C01D92AC31B207E1F70E94AD010C9492
:1000A00066050C94000084B18C6284B985B1837DAF
:1000B00085B9089590E01BC047E050E0491B510905
:1000C000282F30E002C0359527954A95E2F720FFAA
:1000D00004C025B1286025B903C025B1277F25B903
:1000E00025B1206225B925B12F7D25B99F5F9830B4
:1000F00018F308951092B00083E08093B10081E07E
:10010000809370000895CF93DF93EC0168EE73E065
:100110000E940E02CB012AE030E0B9010E940E02DB
:10012000E8E1F1E08083CE0164E670E00E940E0217
:10013000CB01B9010E940E028183CE01B9010E9458
:100140000E02482FCB01B9010E940E028283438325
:10015000DF91CF91089587E690E09093C50080935A
:10016000C40088E08093C10086E08093C2000895B7
:100170009091C00095FFFCCF8093C6000895109227
:10018000800082E08093810008958AB180648AB9FA
:1001900081E884BD85E085BD87E187BD08950F9323
:1001A0001F93CF93DF93CDB7DEB7A0970FB6F89428
:1001B000DEBF0FBECDBF7F936F931F928F9381E001
:1001C00091E09F938F931F9280E28F93CE010196CF
:1001D0009F938F930E946E02082F0FB6F894DEBF94
:1001E0000FBECDBF10E00AC0E1E0F0E0EC0FFD1F54
:1001F000E10FF11D80810E94B8001F5F1017A0F36E
:10020000A0960FB6F894DEBF0FBECDBFDF91CF91A1
:100210001F910F910895109285001092840080E242
:1002200086BB85B18F7E85B92FEF89E698E1215095
:1002300080409040E1F700C0000085B1806185B941
:100240002FEF89E698E1215080409040E1F700C00F
:10025000000085B18F7E85B9E1E8F0E0808180649F
:10026000808380E395E7B59902C00197E1F7892B78
:1002700051F1209186003091870080E286BBE1E851
:10028000F0E080818F7B808380E395E7B59902C0A1
:100290000197E1F7892BD1F080918600909187003A
:1002A000821B930BDC010AF41196B595A7952BEAF6
:1002B00030E00E94440220E137E240E050E00E943A
:1002C0002202C90108958FEF9FEF08958FEF9FEFEE
:1002D00008951F920F920FB60F9211242F933F9300
:1002E0004F935F936F937F938F939F93AF93BF933E
:1002F000CF93EF93FF932091170130E0F901E85E6F
:10030000FE4FE081F0E0E45FFE4F8081F901E85F9D
:10031000FE4FC08195B19B7F95B90E945A008C2FEA
:100320000E945A0085B1846085B9809117018F5F62
:10033000837080931701FF91EF91CF91BF91AF919F
:100340009F918F917F916F915F914F913F912F91ED
:100350000F900FBE0F901F90189510927A0080E8B2
:1003600080BF8FE380937E0084B1806184B984B1C3
:100370008E7F84B90E9453000E947A000E94AB00D5
:100380000E94BF000E94C500789480E090E00E9427
:10039000830080911601853B08F084EB90E0880F84
:1003A000991F880F991F880F991F64EB70E00E94B6
:1003B0000E02685F67BD0E940B01EC01BC018091D9
:1003C00016010E94CF00CF3F2FEFD20719F0CE01C8
:1003D0000E94830080910001982F990F890F982F18
:1003E000990F80911601890F80931601843B38F094
:1003F00084EB809316018FEF8093000105C081117B
:1004000003C081E0809300018FEF90E722E08150EC
:1004100090402040E1F700C00000BBCF97FB072EC3
:1004200016F4009407D077FD09D00E944B0207FC18
:1004300005D03EF4909581959F4F089570956195F4
:100440007F4F0895A1E21A2EAA1BBB1BFD010DC010
:10045000AA1FBB1FEE1FFF1FA217B307E407F50774
:1004600020F0A21BB30BE40BF50B661F771F881F50
:10047000991F1A9469F760957095809590959B01E6
:10048000AC01BD01CF0108950E945F02B7FF08953E
:10049000821B930B0895AA1BBB1B51E107C0AA1F27
:1004A000BB1FA617B70710F0A61BB70B881F991F15
:1004B0005A95A9F780959095BC01CD010895A29F0A
:1004C000B001B39FC001A39F700D811D1124911D28
:1004D000B29F700D811D1124911D0895AEE0B0E012
:1004E000E4E7F2E00C943D050D891E898F89988D13
:1004F00026E02C831A83098397FF02C080E090E8EE
:1005000001979E838D83AE01455E5F4F698D7A8D25
:10051000CE0101960E949E024D815E8157FD0AC068
:100520002F813885421753070CF49A01F801E20F26
:10053000F31F10822E96E4E00C945905ABE0B0E076
:10054000E4EAF2E00C942F056C017B018A01FC01C6
:1005500017821682838181FFCCC1CE0101963C01B6
:10056000F6019381F70193FD859193FF81917F01BE
:10057000882309F4BAC1853239F493FD859193FF3C
:1005800081917F01853229F4B60190E00E949504A3
:10059000E7CF912C212C312CFFE1F315D8F08B32D1
:1005A00079F038F4803279F08332A1F4232D206180
:1005B0001DC08D3261F0803369F4232D216016C097
:1005C000832D8260382EE32DE4603E2E2AC0F32D69
:1005D000F8601DC037FC2DC020ED280F2A3040F0F8
:1005E0008E32B9F436FC81C1232D2064322E19C01D
:1005F00036FE06C08AE0989E200D1124922E11C06E
:10060000EAE02E9E200D1124222EF32DF0623F2EC3
:1006100008C08C3621F4832D8068382E02C08836BD
:1006200041F4F70193FD859193FF81917F01811141
:10063000B3CF982F9F7D9554933028F40C5F1F4FB4
:100640009FE399830DC0833631F0833771F0833592
:1006500009F059C021C0F801808189830E5F1F4FC6
:1006600088248394912C530113C02801F2E04F0E8B
:10067000511CF801A080B18036FE03C0692D70E0E6
:1006800002C06FEF7FEFC5010E948A044C01820116
:10069000F32DFF773F2E16C0280122E0420E511C99
:1006A000F801A080B18036FE03C0692D70E002C061
:1006B0006FEF7FEFC5010E947F044C01F32DF068BE
:1006C0003F2E820133FC1BC0822D90E088169906D4
:1006D000B0F4B60180E290E00E9495042A94F4CF31
:1006E000F50137FC859137FE81915F01B60190E0FD
:1006F0000E94950421102A9421E0821A9108811405
:10070000910471F7E8C0843611F0893641F5F8019B
:1007100037FE07C060817181828193810C5F1F4F1A
:1007200008C060817181072E000C880B990B0E5F49
:100730001F4FF32DFF763F2E97FF09C090958095B0
:10074000709561957F4F8F4F9F4FF0683F2E2AE045
:1007500030E0A3010E94D104882E861845C0853759
:1007600031F4232D2F7EB22E2AE030E025C0932DC8
:10077000997FB92E8F36C1F018F4883579F0B5C05D
:10078000803719F0883721F0B0C0E92FE061BE2E24
:10079000B4FE0DC0FB2DF460BF2E09C034FE0AC0AC
:1007A000292F2660B22E06C028E030E005C020E1E7
:1007B00030E002C020E132E0F801B7FE07C06081FE
:1007C0007181828193810C5F1F4F06C060817181AE
:1007D00080E090E00E5F1F4FA3010E94D104882E9D
:1007E0008618FB2DFF773F2E36FE0DC0232D2E7F62
:1007F000A22E891458F434FE0BC032FC09C0832D9C
:100800008E7EA82E05C0B82CA32C03C0B82C01C026
:10081000B92CA4FE0FC0FE01E80DF11D80818033CC
:1008200021F49A2D997EA92E09C0A2FE06C0B39488
:10083000B39404C08A2D867809F0B394A3FC11C048
:10084000A0FE06C0B21488F4280C922C9B180EC08F
:10085000B21460F4B60180E290E00E949504B39473
:10086000F7CFB21418F42B1802C0982C212CA4FE38
:1008700010C0B60180E390E00E949504A2FE17C06C
:10088000A1FC03C088E790E002C088E590E0B601D3
:100890000CC08A2D867859F0A1FE02C08BE201C0FF
:1008A00080E2A7FC8DE2B60190E00E9495048914D5
:1008B00038F4B60180E390E00E9495049A94F7CF53
:1008C0008A94F301E80DF11D8081B60190E00E9449
:1008D00095048110F5CF222009F442CEB60180E2C2
:1008E00090E00E9495042A94F6CFF60186819781C4
:1008F00002C08FEF9FEF2B96E2E10C944B05FC01B9
:100900000590615070400110D8F7809590958E0F3A
:100910009F1F0895FC016150704001900110D8F7AD
:10092000809590958E0F9F1F08950F931F93CF93DF
:10093000DF93FB01238121FD03C08FEF9FEF2CC0CC
:1009400022FF16C046815781248135814217530703
:1009500044F4A081B1819D012F5F3F4F31832083FB
:100960008C93268137812F5F3F4F3783268314C0B6
:100970008B01EC01FB010084F185E02D0995892BA9
:10098000E1F6D80116968D919C91179701961796CE
:100990009C938E931697CE01DF91CF911F910F916B
:1009A0000895FA01AA27283051F1203181F1E89405
:1009B0006F936E7F6E5F7F4F8F4F9F4FAF4FB1E052
:1009C0003ED0B4E03CD0670F781F891F9A1FA11D4D
:1009D000680F791F8A1F911DA11D6A0F711D811D4E
:1009E000911DA11D20D009F468943F912AE0269F13
:1009F00011243019305D3193DEF6CF010895462F72
:100A00004770405D4193B3E00FD0C9F7F6CF462F52
:100A10004F70405D4A3318F0495D31FD40524193BB
:100A200002D0A9F7EACFB4E0A69597958795779578
:100A30006795BA95C9F700976105710508959B01FF
:100A4000AC010A2E06945795479537952795BA9588
:100A5000C9F7620F731F841F951FA01D08952F9261
:100A60003F924F925F926F927F928F929F92AF923E
:100A7000BF92CF92DF92EF92FF920F931F93CF938B
:100A8000DF93CDB7DEB7CA1BDB0B0FB6F894DEBF22
:100A90000FBECDBF09942A88398848885F846E8448
:100AA0007D848C849B84AA84B984C884DF80EE8092
:100AB000FD800C811B81AA81B981CE0FD11D0FB69B
:100AC000F894DEBF0FBECDBFED010895F894FFCFBF
:100AD0000125752C25750A00F1F2F4F8C0F9A4B0CF
:060AE000999282F880905B
:00000001FF
